:100000005DC0000080C000007EC000007CC0000019
:100010007AC0000078C0000076C00000CBC40000A9
:1000200072C0000070C000006EC000006CC0000014
:100030006AC0000068C0000066C0000064C0000024
:100040006FC4000060C0000035C500000EC5000090
:100050005AC0000058C0000056C0000054C0000044
:1000600052C0000050C00000000000080002010063
:100070000003040700000000000000000000000072
:10008000240027002A0001020408102040800102F9
:1000900004081020010204081020000000002500C0
:1000A00028002B00040404040404040402020202D5
:1000B00002020303030303030200100611241FBE00
:1000C000CFEFD8E0DEBFCDBF11E0A0E0B1E0ECE2C1
:1000D000FDE002C005900D92A431B107D9F721E0EF
:1000E000A4E1B1E001C01D92AF3CB207E1F710E01E
:1000F000CEE5D0E003C02197FE010CD6CD35D10767
:10010000D1F70AD511C67CCF4F925F926F927F9242
:100110008F929F92AF92BF92CF92DF92EF92FF9217
:100120000F931F93CF938C0180910001823021F0B7
:100130008F3F09F014C204C0E8EBF0E0C49172C034
:1001400082E080930001E8EBF0E0C491CF3F09F436
:1001500006C2C13009F1C23009F441C0C11162C008
:1001600014BC15BC84B5826084BD85B5816085BD35
:10017000E6EAF0E0E491F0E0EE0FFF1FE656FF4FF5
:10018000859194919093C2018093C101E8E8F0E0D9
:10019000E491E093C00148C0109280001092810069
:1001A00080918100886080938100809181008160CE
:1001B00080938100E6EAF0E0E491F0E0EE0FFF1FAB
:1001C000E656FF4F859194919093BF018093BE01B5
:1001D000E8E8F0E0E491E093BD01C1E025C01092B1
:1001E000B0001092B1008091B00082608093B000A6
:1001F0008091B10081608093B100E6EAF0E0E49183
:10020000F0E0EE0FFF1FE656FF4F8591949190931B
:10021000BC018093BB01E8E8F0E0E491E093BA010F
:10022000C2E002C0C7FD9BC1E8E8F0E08491E6EAC5
:10023000F0E04491442399F050E0440F551FFA0137
:10024000E458FF4FA591B491FA01E656FF4F25916E
:1002500034919FB7F894EC91E82BEC939FBF480141
:10026000A12CB12C8C2F8D7F09F0B0C060E072E121
:100270008AE790E0A501940122D529013A0169019C
:100280007A0121E0C21AD108E108F1088FEFC816FF
:10029000D104E104F10409F008F448C060E472E418
:1002A0008FE090E0A50194010AD569017A0181E00F
:1002B000C81AD108E108F108C230F9F42FEFC216CC
:1002C000D104E104F10409F008F447C160E970EDDC
:1002D00083E090E0A5019401F2D469017A0181E004
:1002E000C81AD108E108F1082FEFC216D104E104C1
:1002F000F10409F0B8F583E062C08FEFC816D104AD
:10030000E104F104A9F0A0F068E478EE81E090E067
:10031000A5019401D4D469017A0181E0C81AD108F9
:10032000E108F108CC2309F4F7C0EDC081E001C079
:1003300082E0CC2391F043C0D301C2012AE0B595FD
:10034000A795979587952A95D1F76C017D0121E0B6
:10035000C21AD108E108F10885E095B5987F892B8C
:1003600085BD61C068E478EE81E090E0A50194016C
:10037000A6D469017A0181E0C81AD108E108F10820
:100380002FEFC216D104E104F10409F008F48DC086
:1003900064E274EF80E090E0A501940190D46901DB
:1003A0007A0181E0C81AD108E108F1082FEFC216DE
:1003B000D104E104F10411F008F079C085E09091D6
:1003C000B100987F892B8093B1002DC060E072E16D
:1003D0008AE790E0A501940172D469017A0181E075
:1003E000C81AD108E108F108C114D10421E0E206DD
:1003F000F10480F068E478EE81E090E0A5019401DA
:100400005ED469017A0181E0C81AD108E108F108D7
:1004100093E001C091E0C13031F480918100887F88
:10042000892B809381009801220F331FACE2B1E049
:1004300062D428EE33E040E050E01FD4C13099F0A0
:10044000C23019F1C1118BC0C7BC2093CB013093CE
:10045000CC014093CD015093CE0180916E0082601B
:1004600080936E007CC0D0928900C0928800209357
:10047000C7013093C8014093C9015093CA018091CC
:100480006F00826080936F006AC0C092B3002093B7
:10049000C3013093C4014093C5015093C6018091BC
:1004A00070008260809370005AC084E088CF62E15F
:1004B0007AE780E090E0A501940101D469017A0116
:1004C00081E0C81AD108E108F1082FEFC216D10463
:1004D000E104F104B1F0A8F0D301C2015AE0B595EE
:1004E000A795979587955A95D1F76C017D0121E0E5
:1004F000C21AD108E108F108CC2309F42DCF87E016
:100500005ECF86E016CF8FEFC816D104E104F10468
:1005100009F068F684E00DCF8FEFC816D104E1042E
:10052000F104C9F0C0F062E17AE780E090E0A50153
:100530009401C5D369017A0181E0C81AD108E108A4
:10054000F1082FEFC216D104E104F10411F008F014
:10055000F3CE84E002CF83E000CF82E030CFCF91B2
:100560001F910F91FF90EF90DF90CF90BF90AF90D1
:100570009F908F907F906F905F904F9008953FB7BE
:10058000F8948091B6019091B701A091B801B09113
:10059000B90126B5A89B05C02F3F19F00196A11DF2
:1005A000B11D3FBFBA2FA92F982F8827820F911D09
:1005B000A11DB11DBC01CD0142E0660F771F881F50
:1005C000991F4A95D1F708958F929F92AF92BF924B
:1005D000CF92DF92EF92FF92D2DF4B015C0180E974
:1005E000C82EDD24D394E12CF12CC9DFDC01CB0132
:1005F00088199909AA09BB09883E9340A105B1054C
:1006000058F021E0C21AD108E108F10888EE880EFE
:1006100083E0981EA11CB11CC114D104E104F104B3
:1006200021F7FF90EF90DF90CF90BF90AF909F9019
:100630008F90089590910001981324C0E8EBF0E0AA
:10064000E4919FEF90930001E130B9F098F0E2302F
:10065000C9F4909170009D7F9093700091E0909309
:10066000B0009091B100987F94609093B100109287
:10067000B30008C010926E0005C090916F009D7F7E
:1006800090936F0090E0FC01E859FF4F2491FC012A
:10069000EA57FF4F3491FC01EC55FF4FE491EE23F4
:1006A000B9F1222339F1233091F038F42130A9F047
:1006B000223001F584B58F7D12C0273091F02830AB
:1006C000A1F02430B9F4809180008F7D03C0809127
:1006D00080008F77809380000DC084B58F7784BDB4
:1006E00009C08091B0008F7703C08091B0008F7DEA
:1006F0008093B000F0E0EE0FFF1FE656FF4FA5918C
:10070000B4918FB7F894EC9130953E233C938FBF12
:100710000895CF92DF92EF92FF920F931F93CF93A2
:10072000DF936C017A018B01C0E0D0E0CE15DF05CC
:1007300089F0D8016D918D01D601ED91FC91019068
:10074000F081E02DC6010995892B11F47E0102C0CC
:100750002196ECCFC701DF91CF911F910F91FF90B0
:10076000EF90DF90CF900895089580E090E0089595
:10077000FC01538D448D252F30E0842F90E0821BA7
:10078000930B541710F0CF96089501970895FC012C
:10079000918D828D981761F0828DDF01A80FB11DB8
:1007A0005D968C91928D9F5F9F73928F90E00895DC
:1007B0008FEF9FEF0895FC01918D828D981731F096
:1007C000828DE80FF11D858D90E008958FEF9FEFEA
:1007D0000895FC01918D228D892F90E0805C9F4FC0
:1007E000821B91098F739927089584E191E0F1DFCD
:1007F00021E0892B09F420E0822F0895FC01848DEB
:10080000DF01A80FB11DA35ABF4F2C91848D90E03A
:1008100001968F739927848FA689B7892C93A08915
:10082000B1898C9180648C93938D848D981306C0CC
:100830000288F389E02D80818F7D80830895EF9277
:10084000FF920F931F93CF93DF93EC0181E0888F8A
:100850009B8D8C8D981305C0E889F989808185FD71
:1008600023C0F62E0B8D10E00F5F1F4F0F73112763
:10087000E02E8C8DE8120BC00FB607FCFACFE8898A
:10088000F989808185FFF5CFCE01B8DFF2CF8B8D5E
:10089000FE01E80FF11DE35AFF4FF0820B8FEA894A
:1008A000FB898081806207C0EE89FF896083E889C7
:1008B000F98980818064808381E090E0DF91CF912D
:1008C0001F910F91FF90EF900895CF93DF93EC016C
:1008D000888D8823C1F0EA89FB89808185FD05C068
:1008E000A889B9898C9186FD0EC00FB607FCF5CF9B
:1008F000808185FFF2CFA889B9898C9185FFEDCFE2
:10090000CE017CDFE8CFDF91CF91089580E090E0C9
:10091000892B21F06ADF81110C940000089500D228
:100920001F920F920FB60F9211242F933F938F9324
:100930009F93AF93BF938091B2019091B301A09127
:10094000B401B091B5013091B10123E0230F2D37EF
:1009500020F40196A11DB11D05C026E8230F0296C3
:10096000A11DB11D2093B1018093B2019093B301F9
:10097000A093B401B093B5018091B6019091B701F5
:10098000A091B801B091B9010196A11DB11D80934C
:10099000B6019093B701A093B801B093B901BF918C
:1009A000AF919F918F913F912F910F900FBE0F901C
:1009B0001F9018951F920F920FB60F9211242F932C
:1009C0003F934F935F936F937F938F939F93AF93D7
:1009D000BF93EF93FF938091C3019091C401A091C5
:1009E000C501B091C601892B8A2B8B2B51F18091C7
:1009F000BA01E091BB01F091BC019081892780830D
:100A00008091C3019091C401A091C501B091C6012C
:100A1000181619061A061B06BCF48091C3019091A2
:100A2000C401A091C501B091C6010197A109B10906
:100A30008093C3019093C401A093C501B093C601F4
:100A400003C080910001F6DDFF91EF91BF91AF915E
:100A50009F918F917F916F915F914F913F912F91D6
:100A60000F900FBE0F901F9018951F920F920FB608
:100A70000F9211242F933F934F935F936F937F9324
:100A80008F939F93AF93BF93EF93FF9384E191E094
:100A9000B5DEFF91EF91BF91AF919F918F917F91C3
:100AA0006F915F914F913F912F910F900FBE0F90DB
:100AB0001F9018951F920F920FB60F9211242F932B
:100AC0008F939F93EF93FF93E0912401F091250181
:100AD0008081E0912A01F0912B0182FD12C090816A
:100AE00080912D018F5F8F7320912E01821751F01D
:100AF000E0912D01F0E0EC5EFE4F958F80932D018B
:100B000001C08081FF91EF919F918F912F910F9064
:100B10000FBE0F901F901895789484B5826084BDA5
:100B200084B5816084BD85B5826085BD85B58160F1
:100B300085BD80916E00816080936E00109281006F
:100B4000809181008260809381008091810081602A
:100B500080938100809180008160809380008091EB
:100B6000B10084608093B1008091B0008160809377
:100B7000B00080917A00846080937A0080917A003E
:100B8000826080937A0080917A00816080937A00FD
:100B900080917A00806880937A001092C100E09181
:100BA0002401F091250182E08083E0912001F09101
:100BB00021011082E0912201F09123018FEC8083CA
:100BC00010922C01E0912801F091290186E08083A8
:100BD000E0912601F0912701808180618083E0917E
:100BE0002601F0912701808188608083E0912601B1
:100BF000F0912701808180688083E0912601F09147
:100C0000270180818F7D80838CE291E07DDADCDCBE
:100C100080E293E079DAD8DC82E00CDD77DEF4CF95
:100C2000E4E1F1E01382128288EE93E0A0E0B0E00C
:100C300084839583A683B78385E091E09183808345
:100C400085EC90E09587848784EC90E09787868791
:100C500080EC90E0918B808B81EC90E0938B828B89
:100C600082EC90E0958B848B86EC90E0978B868B62
:100C7000118E128E138E148E0895A1E21A2EAA1BC5
:100C8000BB1BFD010DC0AA1FBB1FEE1FFF1FA2173C
:100C9000B307E407F50720F0A21BB30BE40BF50B39
:100CA000661F771F881F991F1A9469F760957095C2
:100CB000809590959B01AC01BD01CF010895052E53
:100CC00097FB16F400940FD057FD05D0D6DF07FC34
:100CD00002D046F408C050954095309521953F4F7D
:100CE0004F4F5F4F089590958095709561957F4F18
:100CF0008F4F9F4F0895A29FB001B39FC001A39F44
:100D0000700D811D1124911DB29F700D811D112444
:100D1000911D0895EE0FFF1F0590F491E02D0994A9
:0C0D200081E090E0F89400C0F894FFCF50
:100D2C00FF000000001F048903B8036504E903C732
:040D3C0003DB0300D2
:00000001FF
